{
    "abi": [
        {
            "type": "constructor",
            "inputs": [
                {
                    "name": "_USDC_ADDRESS",
                    "type": "address",
                    "internalType": "address"
                },
                {
                    "name": "_KYC_VIEWER_ADDRESS",
                    "type": "address",
                    "internalType": "address"
                }
            ],
            "stateMutability": "nonpayable"
        },
        {
            "type": "function",
            "name": "KYC_VIEWER_ADDRESS",
            "inputs": [],
            "outputs": [
                {
                    "name": "",
                    "type": "address",
                    "internalType": "contract IKYC"
                }
            ],
            "stateMutability": "view"
        },
        {
            "type": "function",
            "name": "USDC_ADDRESS",
            "inputs": [],
            "outputs": [
                {
                    "name": "",
                    "type": "address",
                    "internalType": "address"
                }
            ],
            "stateMutability": "view"
        },
        {
            "type": "function",
            "name": "address_to_user",
            "inputs": [
                {
                    "name": "",
                    "type": "address",
                    "internalType": "address"
                }
            ],
            "outputs": [
                {
                    "name": "credit_worthiness",
                    "type": "uint256",
                    "internalType": "uint256"
                },
                {
                    "name": "credit_available",
                    "type": "uint256",
                    "internalType": "uint256"
                }
            ],
            "stateMutability": "view"
        },
        {
            "type": "function",
            "name": "create_user",
            "inputs": [],
            "outputs": [],
            "stateMutability": "nonpayable"
        },
        {
            "type": "function",
            "name": "dispatchLoan",
            "inputs": [
                {
                    "name": "loanAmount",
                    "type": "uint256",
                    "internalType": "uint256"
                },
                {
                    "name": "number_of_splits",
                    "type": "uint8",
                    "internalType": "uint8"
                }
            ],
            "outputs": [],
            "stateMutability": "nonpayable"
        },
        {
            "type": "function",
            "name": "get_credit_limit",
            "inputs": [
                {
                    "name": "user",
                    "type": "address",
                    "internalType": "address"
                }
            ],
            "outputs": [
                {
                    "name": "",
                    "type": "uint256",
                    "internalType": "uint256"
                }
            ],
            "stateMutability": "view"
        },
        {
            "type": "function",
            "name": "get_loan_by_id",
            "inputs": [
                {
                    "name": "user",
                    "type": "address",
                    "internalType": "address"
                },
                {
                    "name": "id",
                    "type": "uint8",
                    "internalType": "uint8"
                }
            ],
            "outputs": [
                {
                    "name": "",
                    "type": "tuple",
                    "internalType": "struct Loan.loanDetails",
                    "components": [
                        {
                            "name": "amount",
                            "type": "uint256",
                            "internalType": "uint256"
                        },
                        {
                            "name": "remaining_tenures",
                            "type": "uint8",
                            "internalType": "uint8"
                        },
                        {
                            "name": "total_tenures",
                            "type": "uint8",
                            "internalType": "uint8"
                        },
                        {
                            "name": "tenure_size",
                            "type": "uint256",
                            "internalType": "uint256"
                        },
                        {
                            "name": "loan_taken_time",
                            "type": "uint256",
                            "internalType": "uint256"
                        },
                        {
                            "name": "next_tenure_due",
                            "type": "uint256",
                            "internalType": "uint256"
                        },
                        {
                            "name": "last_day_of_repayment",
                            "type": "uint256",
                            "internalType": "uint256"
                        }
                    ]
                }
            ],
            "stateMutability": "view"
        },
        {
            "type": "function",
            "name": "get_repayment_amount",
            "inputs": [
                {
                    "name": "repayer",
                    "type": "address",
                    "internalType": "address"
                },
                {
                    "name": "loanId",
                    "type": "uint8",
                    "internalType": "uint8"
                }
            ],
            "outputs": [
                {
                    "name": "",
                    "type": "uint256",
                    "internalType": "uint256"
                }
            ],
            "stateMutability": "view"
        },
        {
            "type": "function",
            "name": "repay_tenure",
            "inputs": [
                {
                    "name": "id",
                    "type": "uint8",
                    "internalType": "uint8"
                }
            ],
            "outputs": [],
            "stateMutability": "nonpayable"
        },
        {
            "type": "function",
            "name": "user_to_loan_mapping",
            "inputs": [
                {
                    "name": "",
                    "type": "address",
                    "internalType": "address"
                },
                {
                    "name": "",
                    "type": "uint256",
                    "internalType": "uint256"
                }
            ],
            "outputs": [
                {
                    "name": "amount",
                    "type": "uint256",
                    "internalType": "uint256"
                },
                {
                    "name": "remaining_tenures",
                    "type": "uint8",
                    "internalType": "uint8"
                },
                {
                    "name": "total_tenures",
                    "type": "uint8",
                    "internalType": "uint8"
                },
                {
                    "name": "tenure_size",
                    "type": "uint256",
                    "internalType": "uint256"
                },
                {
                    "name": "loan_taken_time",
                    "type": "uint256",
                    "internalType": "uint256"
                },
                {
                    "name": "next_tenure_due",
                    "type": "uint256",
                    "internalType": "uint256"
                },
                {
                    "name": "last_day_of_repayment",
                    "type": "uint256",
                    "internalType": "uint256"
                }
            ],
            "stateMutability": "view"
        }
    ],
    "bytecode": {
        "object": "0x60c06040523480156200001157600080fd5b506040516200143b3803806200143b8339810160408190526200003491620000e3565b6001600160a01b03828116608081905290821660a05260405163095ea7b360e01b81523060048201526a084595161401484a000000602482015263095ea7b3906044016020604051808303816000875af115801562000097573d6000803e3d6000fd5b505050506040513d601f19601f82011682018060405250810190620000bd91906200011b565b50505062000146565b80516001600160a01b0381168114620000de57600080fd5b919050565b60008060408385031215620000f757600080fd5b6200010283620000c6565b91506200011260208401620000c6565b90509250929050565b6000602082840312156200012e57600080fd5b815180151581146200013f57600080fd5b9392505050565b60805160a05161129e6200019d6000396000818161018b01528181610690015261072601526000818161020c015281816104f8015281816105fb015281816109f401528181610ad40152610bd0015261129e6000f3fe608060405234801561001057600080fd5b506004361061009e5760003560e01c8063ba9b207311610066578063ba9b2073146101f2578063bb09d9b714610207578063bf397d351461022e578063d3771a7214610236578063df4f1bdc1461024957600080fd5b806329ac759c146100a35780635dbac265146100f6578063654f72c8146101175780636a9c862c14610186578063844e27e7146101c5575b600080fd5b6100b66100b13660046110a5565b610285565b6040805197885260ff968716602089015294909516938601939093526060850191909152608084015260a083015260c082015260e0015b60405180910390f35b6101096101043660046110e0565b6102e6565b6040519081526020016100ed565b61012a6101253660046110e0565b61032e565b6040516100ed9190600060e0820190508251825260ff602084015116602083015260ff6040840151166040830152606083015160608301526080830151608083015260a083015160a083015260c083015160c083015292915050565b6101ad7f000000000000000000000000000000000000000000000000000000000000000081565b6040516001600160a01b0390911681526020016100ed565b6101096101d3366004611113565b6001600160a01b03166000908152600160208190526040909120015490565b610205610200366004611135565b610410565b005b6101ad7f000000000000000000000000000000000000000000000000000000000000000081565b610205610678565b610205610244366004611158565b610898565b610270610257366004611113565b6001602081905260009182526040909120805491015482565b604080519283526020830191909152016100ed565b600060205281600052604060002081815481106102a157600080fd5b600091825260209091206006909102018054600182015460028301546003840154600485015460059095015493965060ff808416965061010090930490921693909287565b6001600160a01b0382166000908152602081905260408120805460ff841690811061031357610313611173565b90600052602060002090600602016002015490505b92915050565b6103746040518060e0016040528060008152602001600060ff168152602001600060ff168152602001600081526020016000815260200160008152602001600081525090565b6001600160a01b0383166000908152602081905260409020805460ff84169081106103a1576103a1611173565b60009182526020918290206040805160e081018252600690930290910180548352600181015460ff808216958501959095526101009004909316908201526002820154606082015260038201546080820152600482015460a082015260059091015460c0820152905092915050565b3360009081526001602081815260409283902083518085019094528054808552920154908301528391906104825760405162461bcd60e51b8152602060048201526014602482015273596f7520617265206e6f7420656c696769626c6560601b60448201526064015b60405180910390fd5b81816020015110156104e15760405162461bcd60e51b815260206004820152602260248201527f436c656172206465627473206265666f72652074616b696e67206e6577206c6f60448201526130b760f11b6064820152608401610479565b6040516370a0823160e01b815230600482015284907f00000000000000000000000000000000000000000000000000000000000000006001600160a01b0316906370a0823190602401602060405180830381865afa158015610547573d6000803e3d6000fd5b505050506040513d601f19601f8201168201806040525081019061056b9190611189565b10156105ce5760405162461bcd60e51b815260206004820152602c60248201527f596f7572206c6f616e2063616e7420626520736572766564206e6f772074727960448201526b1030b3b0b4b7103630ba32b960a11b6064820152608401610479565b6105d9338585610c07565b6040516323b872dd60e01b8152306004820152336024820152604481018590527f00000000000000000000000000000000000000000000000000000000000000006001600160a01b0316906323b872dd906064015b6020604051808303816000875af115801561064d573d6000803e3d6000fd5b505050506040513d601f19601f8201168201806040525081019061067191906111a2565b5050505050565b6040516313289ea360e31b81523360048201526000907f00000000000000000000000000000000000000000000000000000000000000006001600160a01b031690639944f51890602401602060405180830381865afa1580156106df573d6000803e3d6000fd5b505050506040513d601f19601f8201168201806040525081019061070391906111a2565b604051631c8608d760e11b81523360048201529091506000906001600160a01b037f0000000000000000000000000000000000000000000000000000000000000000169063390c11ae90602401602060405180830381865afa15801561076d573d6000803e3d6000fd5b505050506040513d601f19601f8201168201806040525081019061079191906111a2565b336000908152600160205260409020549091501580156107c257503360009081526001602081905260409091200154155b6108045760405162461bcd60e51b81526020600482015260136024820152725573657220616c72656164792065786973747360681b6044820152606401610479565b81801561080e5750805b6108665760405162461bcd60e51b8152602060048201526024808201527f4f6e6c79204b5943656420496e646976696475616c732063616e2074616b65206044820152633637b0b760e11b6064820152608401610479565b505060408051808201825260c88082526020808301918252336000908152600191829052939093209151825551910155565b33600090815260208190526040812080548392919060ff84169081106108c0576108c0611173565b60009182526020918290206040805160e08101825260069093029091018054808452600182015460ff808216968601969096526101009004909416918301919091526002810154606083015260038101546080830152600481015460a08301526005015460c082015291501580159061093c575060c081015115155b801561094b5750608081015115155b801561095a575060a081015115155b801561096c5750602081015160ff1615155b801561097b5750606081015115155b801561098d5750604081015160ff1615155b6109d95760405162461bcd60e51b815260206004820152601860248201527f54686973206973206e6f7420612076616c6964206c6f616e00000000000000006044820152606401610479565b604051636eb1769f60e11b81523360048201523060248201527f00000000000000000000000000000000000000000000000000000000000000006001600160a01b03169063dd62ed3e90604401602060405180830381865afa158015610a43573d6000803e3d6000fd5b505050506040513d601f19601f82011682018060405250810190610a679190611189565b81606001511115610aba5760405162461bcd60e51b815260206004820152601c60248201527f596f752068617665206e6f2070726f70657220616c6c6f77616e6365000000006044820152606401610479565b60608101516040516370a0823160e01b81523360048201527f00000000000000000000000000000000000000000000000000000000000000006001600160a01b0316906370a0823190602401602060405180830381865afa158015610b23573d6000803e3d6000fd5b505050506040513d601f19601f82011682018060405250810190610b479190611189565b1015610b955760405162461bcd60e51b815260206004820152601c60248201527f596f7520646f6e74206861766520656e6f7567682062616c616e6365000000006044820152606401610479565b610b9f3384610d52565b6000610bab33856102e6565b6040516323b872dd60e01b8152336004820152306024820152604481018290529091507f00000000000000000000000000000000000000000000000000000000000000006001600160a01b0316906323b872dd9060640161062e565b6001600160a01b0383166000908152600160208181526040808420815180830190925280548252909201549082015290610c426005856111da565b610c4c90856111fc565b9050808260200151610c5e919061120f565b60208301526000610c7260ff8516836111da565b9050426000610c848262278d006111fc565b90506000610c958462278d00611222565b610c9f90846111fc565b6001600160a01b03909916600090815260208181526040808320815160e08101835298895260ff9a8b16898401818152928a0190815260608a0198895260808a0197885260a08a0196875260c08a019d8e52815460018181018455928652939094209851600690930290980191825551968101805492518a166101000261ffff19909316979099169690961717909655915160028401555160038301555160048201559351600590940193909355505050565b6001600160a01b0382166000908152602081905260408120805460ff8416908110610d7f57610d7f611173565b60009182526020918290206040805160e08101825260069093029091018054835260018082015460ff80821696860187905261010090910416928401929092526002810154606084015260038101546080840152600481015460a08401526005015460c083015290925003610dfd57610df88383610f63565b505050565b60608101516001600160a01b03841660009081526001602081905260409091200154610e2991906111fc565b6001600160a01b038416600090815260016020819052604082200191909155610e554262278d006111fc565b9050600060018360200151610e6a9190611239565b90506040518060e00160405280846000015181526020018260ff168152602001846040015160ff16815260200184606001518152602001846080015181526020018381526020018460c00151815250600080876001600160a01b03166001600160a01b031681526020019081526020016000208560ff1681548110610ef157610ef1611173565b6000918252602091829020835160069092020190815590820151600182018054604085015160ff9081166101000261ffff19909216931692909217919091179055606082015160028201556080820151600382015560a0820151600482015560c0909101516005909101555050505050565b6001600160a01b038216600090815260208190526040902080548190610f8b9060019061120f565b81548110610f9b57610f9b611173565b9060005260206000209060060201818360ff1681548110610fbe57610fbe611173565b60009182526020909120825460069092020190815560018083018054918301805460ff93841660ff19821681178355925461ffff1990911690921761010092839004909316909102919091179055600280830154908201556003808301549082015560048083015490820155600591820154910155805481908061104457611044611252565b60008281526020812060066000199093019283020181815560018101805461ffff19169055600281018290556003810182905560048101829055600501559055505050565b80356001600160a01b03811681146110a057600080fd5b919050565b600080604083850312156110b857600080fd5b6110c183611089565b946020939093013593505050565b803560ff811681146110a057600080fd5b600080604083850312156110f357600080fd5b6110fc83611089565b915061110a602084016110cf565b90509250929050565b60006020828403121561112557600080fd5b61112e82611089565b9392505050565b6000806040838503121561114857600080fd5b8235915061110a602084016110cf565b60006020828403121561116a57600080fd5b61112e826110cf565b634e487b7160e01b600052603260045260246000fd5b60006020828403121561119b57600080fd5b5051919050565b6000602082840312156111b457600080fd5b8151801515811461112e57600080fd5b634e487b7160e01b600052601160045260246000fd5b6000826111f757634e487b7160e01b600052601260045260246000fd5b500490565b80820180821115610328576103286111c4565b81810381811115610328576103286111c4565b8082028115828204841417610328576103286111c4565b60ff8281168282160390811115610328576103286111c4565b634e487b7160e01b600052603160045260246000fdfea2646970667358221220ca484bf40aa4f25426916c76b514378b540c53547d7e25dd5cbe220bab70248e64736f6c63430008180033",
        "linkReferences": {}
    },
    "methodIdentifiers": {
        "KYC_VIEWER_ADDRESS()": "6a9c862c",
        "USDC_ADDRESS()": "bb09d9b7",
        "address_to_user(address)": "df4f1bdc",
        "create_user()": "bf397d35",
        "dispatchLoan(uint256,uint8)": "ba9b2073",
        "get_credit_limit(address)": "844e27e7",
        "get_loan_by_id(address,uint8)": "654f72c8",
        "get_repayment_amount(address,uint8)": "5dbac265",
        "repay_tenure(uint8)": "d3771a72",
        "user_to_loan_mapping(address,uint256)": "29ac759c"
    },
    "id": 2
}